34100000      081211442110000120                    01403 000000000970 5ART VIAGENS E TURISMO LTDA    BANCO ITAU S.A                          10111202112252100000000000000
34100011C2045040 211442110000120                    01403 000000000970 5ART VIAGENS E TURISMO LTDA                                            RUA DOS AIMORES               0100114 ANDAR       BELO HORIZONTE      30140071MG
3410001300001A00100931800044 000006716859 2LOHANN WINNER DE LIMA TAVARES 1883914             01112021REA000000000100000000000001484074                    000000000000000000000000000                00000000043405038863            0
3410001300002A00100931800044 000005563421 2PEDRO ANTONIO BORGES FERREIRA 1883988             01112021REA000000000100000000000000023401                    000000000000000000000000000                00000000080460011804            0
3410001300003A00100931800044 000010993959 2RUY SERGIO ALVES DE CERQUEIRA 1846127             01112021REA000000000100000000000000021601                    000000000000000000000000000                00000000003328655506            0
3410001300004A00100931800044 000008626104 1FRANCISCO GOMES               1882653             01112021REA000000000100000000000000021601                    000000000000000000000000000                00000000004619639303            0
3410001300005A00100921800001 000000423779 0MARCOS JUNIOR SANTOS BERGH    1836620             01112021REA000000000100000000000000128966                    000000000000000000000000000                00000000018330342794            0
3410001300006A00100923700553 000000504298 4ALVINO SCARPINI               1856369             01112021REA000000000100000000000001476274                    000000000000000000000000000                00000000028211057700            0
3410001300007A00100923702992 000000072446 7DARCY MORAES CARVALHO DE ARAUJ1859164             01112021REA000000000100000000000001435034                    000000000000000000000000000                00000000012731960400            0
3410001300008A00100923700244 000000055851 6MARIA DE LOURDES PEREIRA SOARE1861833             01112021REA000000000100000000000001435000                    000000000000000000000000000                00000000045752184134            0
3410001300009A00100923701780 000000002309 4MARCO ANTONIO MARTINS VITAL   1860197             01112021REA000000000100000000000001340321                    000000000000000000000000000                00000000092981836153            0
3410001300010A00100923700448 000001025942 8DIEGO DE ALMEIDA SOARES       1871977             01112021REA000000000300000000000001331420                    000000000000000000000000000                00000000010078059780            0
3410001300011A00100923700151 000000300461 9MARINA ALVES EVANGELISTA      1863278             01112021REA000000000100000000000001280204                    000000000000000000000000000                00000000034002230856            0
3410001300012A00100923701233 000000377187 3FERNANDO VALCI BENATTE        1877364             01112021REA000000000100000000000001260000                    000000000000000000000000000                00000000025313945831            0
3410001300013A00100923701701 000000200084 9RODRIGO AGOSTINHO             1859277             01112021REA000000000100000000000001229180                    000000000000000000000000000                00000000027591961861            0
3410001300014A00100923700096 000000087939 8WALKYRIA DA SILVA GUIMARAES   1874137             01112021REA000000000300000000000001110917                    000000000000000000000000000                00000000091415020868            0
3410001300015A00100923701757 000000041166 3MARCELO HENRIQUE GUIMARAES GUE1999306             01112021REA000000000100000000000001099000                    000000000000000000000000000                00000000038475448534            0
3410001300016A00100923702650 000000003781 8HENRIQUE S BARCAUI            1882621             01112021REA000000000100000000000000914318                    000000000000000000000000000                00000000010831468742            0
3410001300017A00100923702268 000000054392 6THIAGO MOURA LOURENCO         1860859             01112021REA000000000100000000000000878425                    000000000000000000000000000                00000000006724608660            0
3410001300018A00100923701669 000000316470 5CLAUDIA CARRARO EDUARDO RODRIG1883531             01112021REA000000000100000000000000822066                    000000000000000000000000000                00000000010831726709            0
3410001300019A00100923702389 000000270588 5GUILHERME SCHOTTEN MARCHESE   1879331             01112021REA000000000100000000000000816900                    000000000000000000000000000                00000000036874356879            0
3410001300020A00100923701315 000000006410 6PAULO CESAR SILVA DE ARAUJO   1884516             01112021REA000000000100000000000000765992                    000000000000000000000000000                00000000012243553775            0
3410001300021A00100923700537 000000558837 5DEIVISSON DA SILVA SANTOS     1883236             01112021REA000000000100000000000000760903                    000000000000000000000000000                00000000006171232505            0
3410001300022A00100923700234 000000048777 5NERI PAULI                    1861169             01112021REA000000000100000000000000744560                    000000000000000000000000000                00000000081594216134            0
3410001300023A00100923702729 000000060007 5ANDREZA RAQUEL VITOR LOPES    1882848             01112021REA000000000100000000000000726600                    000000000000000000000000000                00000000006924374603            0
3410001300024A00100923705774 000001001430 1FRANCISCO EDUARDO BRUNO ROSEND1876624             01112021REA000000000300000000000000703164                    000000000000000000000000000                00000000007234407430            0
3410001300025A00100923707038 000000005246 9VITOR HUGO DRUMONDE BORGES    1856195             01112021REA000000000100000000000000694753                    000000000000000000000000000                00000000005541665779            0
3410001300026A00100923700707 000000003587 4FILIPE AUGUSTO GOMES ALVES    1875251             01112021REA000000000100000000000000689787                    000000000000000000000000000                00000000003076712160            0
3410001300027A00100923700455 000000049466 6KELVIN CARDOSO ARIAIS         1863692             01112021REA000000000100000000000000649041                    000000000000000000000000000                00000000005214643314            0
3410001300028A00100923703190 000000034749 3KLLEBER HENRIQUE SILVA RAMOS  1867521             01112021REA000000000100000000000000639615                    000000000000000000000000000                00000000010173726402            0
3410001300029A00100923700947 000000002481 3RANDER DE JESUS CHAVES        1883211             01112021REA000000000100000000000000638152                    000000000000000000000000000                00000000005565058163            0
3410001300030A00100923702494 000000022777 3ZUELZER POUBEL FILHO          1872262             01112021REA000000000100000000000000636300                    000000000000000000000000000                00000000032337892700            0
3410001300031A00100923703531 000000100437 9EBER FERNANDES CRISTALINO     1879771             01112021REA000000000100000000000000631680                    000000000000000000000000000                00000000016901154836            0
3410001300032A00100923706699 000000001410 9DEBORAH ALINE ALVES ROSA      1881340             01112021REA000000000100000000000000630000                    000000000000000000000000000                00000000011333827628            0
3410001300033A00100923701261 000000016490 9ANDERSON DOS SANTOS CABRAL    1875634             01112021REA000000000100000000000000629362                    000000000000000000000000000                00000000036838444852            0
3410001300034A00100923706083 000000018403 9BRENO CARRILHO LINS DE ANDRADE1886511             01112021REA000000000100000000000000613229                    000000000000000000000000000                00000000006483687427            0
3410001300035A00100923705750 000000121850 6ALAN FIDELIS DA CRUZ          1870999             01112021REA000000000100000000000000613209                    000000000000000000000000000                00000000022309261874            0
3410001300036A00100923700014 000000101144 8WELINTON ROBERTO MOISES       1885352             01112021REA000000000100000000000000607760                    000000000000000000000000000                00000000036008376803            0
3410001300037A00100923700654 000000008027 6ADRIANO VALERIANO DE OLIVEIRA 1883907             01112021REA000000000100000000000000605797                    000000000000000000000000000                00000000005913245474            0
3410001300038A00100923703072 000000006051 8LUDMILA ANDRADE DE ARAUJO     1882171             01112021REA000000000100000000000000598528                    000000000000000000000000000                00000000001923336584            0
3410001300039A00100923700484 000000002753 7MATHEUS LUSTOSA LEMOS         1884869             01112021REA000000000100000000000000597060                    000000000000000000000000000                00000000002144432139            0
3410001300040A00100923701382 000000383912 5MARCELO LIBANORI FERNANDES    1873620             01112021REA000000000100000000000000576576                    000000000000000000000000000                00000000039905285806            0
3410001300041A00100923703245 000000087711 5LOURENCO CHOHFI NETO          1868638             01112021REA000000000100000000000000563707                    000000000000000000000000000                00000000031267043873            0
3410001300042A00100923701759 000000002082 6PABLO DE NOVAES MONTEIRO      1874730             01112021REA000000000100000000000000561713                    000000000000000000000000000                00000000001068861509            0
3410001300043A00100923703335 000000344793 6LUCIANA NEGRAO                1874764             01112021REA000000000100000000000000553910                    000000000000000000000000000                00000000010699401860            0
3410001300044A00100923703206 000000653051 6ANA CLAUDIA VITOR FERNANDES   1882586             01112021REA000000000100000000000000539161                    000000000000000000000000000                00000000062280627434            0
3410001300045A00100923700725 000000023444 3VANUSA GOMES BARROS           1877165             01112021REA000000000100000000000000507170                    000000000000000000000000000                00000000003393094157            0
3410001300046A00100923700867 000001000606 6CINTIA TORRES MARCOLONGO PEREI1872958             01112021REA000000000300000000000000504008                    000000000000000000000000000                00000000009144857764            0
3410001300047A00100923700455 000000010291 1SAMUEL MARINHO SILVA          1861120             01112021REA000000000100000000000000496686                    000000000000000000000000000                00000000004838250347            0
3410001300048A00100923701857 000000550991 2DIGIANE COELHO DA SILVA       1881677             01112021REA000000000100000000000000490485                    000000000000000000000000000                00000000008158510736            0
3410001300049A00100923703541 000000185137 3MIRELLA TACHINARDI SIMONELLI  1879789             01112021REA000000000100000000000000477661                    000000000000000000000000000                00000000026034444845            0
3410001300050A00100923700328 000000602216 2TAMARA BENTO GABRIEL          1882377             01112021REA000000000100000000000000471511                    000000000000000000000000000                00000000037129243805            0
3410001300051A00100923703335 000000340087 5ROBERTO NATEL                 1879213             01112021REA000000000100000000000000471509                    000000000000000000000000000                00000000003782087801            0
3410001300052A00100923700649 000000045287 4RUTE BATISTA DA SILVA         1873575             01112021REA000000000100000000000000470407                    000000000000000000000000000                00000000035889454315            0
3410001300053A00100923702891 000000513476 5RAFAEL SALES DOS SANTOS E SILV1875985             01112021REA000000000100000000000000469459                    000000000000000000000000000                00000000006611301429            0
3410001300054A00100923701231 000000111335 6RAIMUNDO RODRIGUES LIMA       1884475             01112021REA000000000100000000000000468018                    000000000000000000000000000                00000000037494414304            0
3410001300055A00100923701022 000000000565 7VINICIUS SILVA GOMES          1874602             01112021REA000000000100000000000000465361                    000000000000000000000000000                00000000013452103706            0
3410001300056A00100923702526 000000014453 3JOAO PAULO ARAGAO DE ALMEIDA  1876121             01112021REA000000000100000000000000461259                    000000000000000000000000000                00000000015650428751            0
3410001300057A00100923700727 000000003334 0JOSE EDER FROTA DE SOUZA      1862205             01112021REA000000000100000000000000451068                    000000000000000000000000000                00000000065417232300            0
3410001300058A00100923706176 000000256495 5WANDESSON JORGE DA PAZ        1883299             01112021REA000000000100000000000000440977                    000000000000000000000000000                00000000003784755178            0
3410001300059A00100923700525 000000024901 7ANDRE LUIZ ROSA SANTOS SILVA  1876997             01112021REA000000000100000000000000436659                    000000000000000000000000000                00000000041840609869            0
3410001300060A00100923701764 000000079917 3WAGNER CHUITI OJIMA           1881597             01112021REA000000000100000000000000426300                    000000000000000000000000000                00000000009981895881            0
3410001300061A00100923701892 000000013822 3EVANILDO JOSE SOUZA RODRIGUES 1884948             01112021REA000000000100000000000000425860                    000000000000000000000000000                00000000082774480663            0
3410001300062A00100923702714 000001001986 9PEDRO VICTOR LEITE PANADES    1884626             01112021REA000000000300000000000000424017                    000000000000000000000000000                00000000010046600655            0
3410001300063A00100923702519 000000004194 7PAULO GOMES                   1874181             01112021REA000000000100000000000000423570                    000000000000000000000000000                00000000031865994820            0
3410001300064A00100923701764 000000005502 6MARIANA GASPERAZZO BARATELLA G1875122             01112021REA000000000100000000000000418210                    000000000000000000000000000                00000000036547361810            0
3410001300065A00100923700384 000000055500 2SANDRO GIANELLO               1882677             01112021REA000000000100000000000000417661                    000000000000000000000000000                00000000096111542915            0
3410001300066A00100923703757 000000004643 4FERNANDO DEONISIO DE VAL PYSKL1884179             01112021REA000000000100000000000000416016                    000000000000000000000000000                00000000096338989191            0
3410001300067A00100923700958 000000552888 7BRUNA FERREIRA FITIPALDI      1875519             01112021REA000000000100000000000000414108                    000000000000000000000000000                00000000013707745759            0
3410001300068A00100923700319 000001000826 3JOSE EDUARDO MANZOLI          1865912             01112021REA000000000300000000000000412983                    000000000000000000000000000                00000000027158145859            0
3410001300069A00100923701594 000000028434 3ADILVANILSON FERREIRA DA COSTA1881586             01112021REA000000000100000000000000410008                    000000000000000000000000000                00000000005475966427            0
3410001300070A00100923700482 000000703462 8NUBIA CRISTINA CAVALCANTE MART1875708             01112021REA000000000300000000000000405908                    000000000000000000000000000                00000000084154420259            0
3410001300071A00100923703294 000000013283 7BRUNO ROCHA SILVERIO          1882263             01112021REA000000000100000000000000405814                    000000000000000000000000000                00000000009130189969            0
3410001300072A00100923700510 000000026705 8THIAGO CALDEIRA BERNARDI      1883559             01112021REA000000000100000000000000397730                    000000000000000000000000000                00000000027558174880            0
3410001300073A00100923703236 000000011014 0GABRIEL ANDREAZZA             1879962             01112021REA000000000100000000000000382200                    000000000000000000000000000                00000000000514007079            0
3410001300074A00100923701902 000000060736 3VICTOR MATTOS                 1867072             01112021REA000000000100000000000000380106                    000000000000000000000000000                00000000012290808725            0
3410001300075A00100923700627 000000057723 5ADRIEL MARCELO LUZ            1881030             01112021REA000000000100000000000000380100                    000000000000000000000000000                00000000027681140816            0
3410001300076A00100923705247 000000116960 2MARCOS HAROITTO GUEDES SHISHID1879743             01112021REA000000000100000000000000373109                    000000000000000000000000000                00000000004682855123            0
3410001300077A00100923703154 000000023304 8THIAGO PEREZ DOS SANTOS       1871211             01112021REA000000000100000000000000365547                    000000000000000000000000000                00000000039978330879            0
3410001300078A00100923701707 000000018785 2DANILO PAMPONET VEIGA         1882992             01112021REA000000000100000000000000364909                    000000000000000000000000000                00000000083711686591            0
3410001300079A00100923707320 000000040659 7GEYCIANE ALENCAR SERVALO      1883330             01112021REA000000000100000000000000362857                    000000000000000000000000000                00000000079848737200            0
3410001300080A00100923701374 000000008524 3LUCAS CASTILHO RODRIGUES      1870867             01112021REA000000000100000000000000362857                    000000000000000000000000000                00000000002818279232            0
3410001300081A00100923703481 000000018622 8FARLYSON MATOS                1870563             01112021REA000000000100000000000000360000                    000000000000000000000000000                00000000041122076894            0
3410001300082A00100923700285 000000164152 2LUCAS SOUZA BANDEIRA          1870178             01112021REA000000000100000000000000360000                    000000000000000000000000000                00000000002944493027            0
3410001300083A00100923701661 000000006070 4JOSE CARLOS DOS SANTOS GASPAR 1879305             01112021REA000000000100000000000000357210                    000000000000000000000000000                00000000042465869868            0
3410001300084A00100923700687 000000351277 0IRANILSON OLIVEIRA DO NASCIMEN1873198             01112021REA000000000100000000000000357005                    000000000000000000000000000                00000000001089605366            0
3410001300085A00100923702659 000000301031 7EDMILSON GABRIEL DE MELLO     1866762             01112021REA000000000100000000000000356706                    000000000000000000000000000                00000000002374460061            0
3410001300086A00100923703250 000000515790 0FLAVIO RICARDO DE CHRISTO KOCH1953204             01112021REA000000000100000000000000346516                    000000000000000000000000000                00000000056025386072            0
3410001300087A00100923700564 000000400895 2MARIA DE FATIMA REBOUCAS RODRI1871948             01112021REA000000000100000000000000346500                    000000000000000000000000000                00000000045601925372            0
3410001300088A00100923707828 000000001971 2JANETE CRISTINA DA SILVA      1878893             01112021REA000000000100000000000000346450                    000000000000000000000000000                00000000027400230816            0
3410001300089A00100923703571 000000000502 9RITA DE CASSIA ASSIS LOPO GARR1883380             01112021REA000000000100000000000000344407                    000000000000000000000000000                00000000027436756591            0
3410001300090A00100923700388 000000366394 9MARCELO ANTAO LIMA SANTOS     1876503             01112021REA000000000100000000000000342357                    000000000000000000000000000                00000000095596046000            0
3410001300091A00100923700701 000000002492 9ISABELA OLIVEIRA              1879855             01112021REA000000000100000000000000341337                    000000000000000000000000000                00000000006233415659            0
3410001300092A00100923700769 000000034986 0RENAN BARROSO MEDEIROS DE OLIV1875529             01112021REA000000000100000000000000340307                    000000000000000000000000000                00000000003710843340            0
3410001300093A00100923706536 000000200165 9CLEIDE SILVA MANZINI          1885500             01112021REA000000000100000000000000338120                    000000000000000000000000000                00000000001112052712            0
3410001300094A00100923700323 000000076453 1IZAIAS VICENTE                1881904             01112021REA000000000100000000000000338100                    000000000000000000000000000                00000000005323217405            0
3410001300095A00100923700402 000000353440 5LUCAS DIAS                    1881914             01112021REA000000000100000000000000338100                    000000000000000000000000000                00000000039436566832            0
3410001300096A00100923701668 000000015343 5ROSANA MARIA FRANCO           1878157             01112021REA000000000100000000000000338100                    000000000000000000000000000                00000000010802353886            0
3410001300097A00100923701446 000000611661 2THIAGO AUGUSTO DA SILVA FERREI1886596             01112021REA000000000100000000000000331816                    000000000000000000000000000                00000000013952795780            0
3410001300098A00100923703273 000000041632 0FLAVIO RODRIGUES              1876990             01112021REA000000000100000000000000328006                    000000000000000000000000000                00000000058862366000            0
3410001300099A00100923703051 000000005808 4SANDRO LUDNEY NOGUEIRA        1879553             01112021REA000000000100000000000000326155                    000000000000000000000000000                00000000005004263922            0
3410001300100A00100923702467 000000070892 5FRANCISCO OLIVEIRA            1876415             01112021REA000000000100000000000000323400                    000000000000000000000000000                00000000004114263381            0
3410001300101A00100923707170 000000007967 7JOSE MARIA RODRIGUES NETO     1884252             01112021REA000000000100000000000000320332                    000000000000000000000000000                00000000061815594268            0
3410001300102A00100923702627 000001001403 4ANDREIA APARECIDA RODRIGUES DE1880940             01112021REA000000000300000000000000319806                    000000000000000000000000000                00000000001676358676            0
3410001300103A00100923700670 000000070405 9ROSEMARI RAMOS DA SILVA MATOS 1878937             01112021REA000000000100000000000000315000                    000000000000000000000000000                00000000014918312861            0
3410001300104A00100923706239 000000012987 9ALESSANDRA APARECIDA LEOCADIO 1877352             01112021REA000000000100000000000000313656                    000000000000000000000000000                00000000002823336907            0
3410001300105A00100923700938 000000200056 3STEPHANIE SENA                1885237             01112021REA000000000100000000000000312012                    000000000000000000000000000                00000000052262430225            0
3410001300106A00100923700244 000000005555 7GILMAR RODRIGUES CARDOSO      1880152             01112021REA000000000100000000000000306475                    000000000000000000000000000                00000000024315664120            0
3410001300107A00100923700432 000000413206 8BRENNA WINKIE DEUSDARA BRITO  1875990             01112021REA000000000100000000000000304505                    000000000000000000000000000                00000000006281663381            0
3410001300108A00100923700189 000000021078 1NATIELLY DOS SANTOS MEDEIROS  1875896             01112021REA000000000100000000000000304013                    000000000000000000000000000                00000000001608182142            0
3410001300109A00100923702650 000000012001 4ANAUHAN SOARES DE SENA SALES  1876166             01112021REA000000000100000000000000304013                    000000000000000000000000000                00000000010881364789            0
3410001300110A00100923700269 000000251699 3CRISTIANE GALAFASSI           1876212             01112021REA000000000100000000000000304013                    000000000000000000000000000                00000000061819263053            0
3410001300111A00100923700846 000000551254 9EMERSON LUIZ TAVARES DA COSTA 1876549             01112021REA000000000100000000000000304013                    000000000000000000000000000                00000000001075435757            0
3410001300112A00100923703736 000000018550 7SOLANGE BRUNO TORRES REGO     1879512             01112021REA000000000100000000000000303406                    000000000000000000000000000                00000000027070514204            0
3410001300113A00100923705749 000000086017 4GISELE GOES                   1883308             01112021REA000000000100000000000000303406                    000000000000000000000000000                00000000001994661909            0
3410001300114A00100923701228 000000012680 2MAYCON OLIVEIRA MONTALVAO     1881878             01112021REA000000000100000000000000296815                    000000000000000000000000000                00000000005681356108            0
3410001300115A00100923700279 000000240249 1RICARDO GUIMARAES             1875742             01112021REA000000000100000000000000296413                    000000000000000000000000000                00000000011935862758            0
3410001300116A00100923701063 000000550052 4FRANCISCA MATOS SILVA         1875065             01112021REA000000000100000000000000296100                    000000000000000000000000000                00000000086590901791            0
3410001300117A00100923703582 000005000081 8MARIA RAIMUNDA DE SOUZA INACIO1880250             01112021REA000000000300000000000000295206                    000000000000000000000000000                00000000053587880697            0
3410001300118A00100923702173 000000017587 0DEBORA RENATA                 1875842             01112021REA000000000100000000000000290713                    000000000000000000000000000                00000000070036220418            0
3410001300119A00100923707187 000000036944 6LOSABEL DOS SANTOS MACHADO    1876633             01112021REA000000000100000000000000288813                    000000000000000000000000000                00000000047824654087            0
3410001300120A00100923706032 000000012529 6MAURICIO RAMOS SANTIAGO       1882705             01112021REA000000000100000000000000287006                    000000000000000000000000000                00000000083870288515            0
3410001300121A00100923703442 000001002788 8JOAO TOLEDO                   1876585             01112021REA000000000300000000000000285013                    000000000000000000000000000                00000000011307009689            0
3410001300122A00100923703004 000000150068 6MARIA DAS GRACAS MATOS DE SANT1876272             01112021REA000000000100000000000000285013                    000000000000000000000000000                00000000021553998553            0
3410001300123A00100923705474 000000002620 4DANILO MACIEL LIMA            1876299             01112021REA000000000100000000000000285013                    000000000000000000000000000                00000000005160923160            0
3410001300124A00100923703442 000000021889 8PALOMA BARRA                  1876335             01112021REA000000000100000000000000285013                    000000000000000000000000000                00000000008668085662            0
3410001300125A00100923705423 000000280280 5LEANDRO DA SILVA ALMEIDA      1875849             01112021REA000000000100000000000000285013                    000000000000000000000000000                00000000000439222281            0
3410001300126A00100923706019 000000003855 5RUBIA MAIARA DA SILVA PINHEIRO1875856             01112021REA000000000100000000000000285013                    000000000000000000000000000                00000000072069376249            0
3410001300127A00100923703016 000000032425 6GIULIA GARAVAGLIA TOLEDO      1876232             01112021REA000000000100000000000000285013                    000000000000000000000000000                00000000072689579715            0
3410001300128A00100923700270 000000067907 0HELANA DO CARMO CORREIA       1875556             01112021REA000000000100000000000000285013                    000000000000000000000000000                00000000001259624528            0
3410001300129A00100923701900 000001000111 0LIVAN CARVALHO ORTIZ          1865108             01112021REA000000000300000000000000274786                    000000000000000000000000000                00000000000675015081            0
3410001300130A00100907700001 000000865599 5LARA CONEZA IMAI              1877938             01112021REA000000000100000000000000271530                    000000000000000000000000000                00000000034340515892            0
3410001300131A00100923702192 000000018807 7JOHNNY LIMA                   1886477             01112021REA000000000100000000000000266713                    000000000000000000000000000                00000000096467886372            0
3410001300132A00100923702606 000001006101 6KATIA DE BARROS TAVARES DA COS1877869             01112021REA000000000300000000000000266015                    000000000000000000000000000                00000000098061658704            0
3410001300133A00100923702591 000000321604 7JOAO LUIZ MELLO DE ALMEIDA    1879559             01112021REA000000000100000000000000261000                    000000000000000000000000000                00000000022046698819            0
3410001300134A00100923700156 000000518747 8MARCOS KENJI TANAKA           1884433             01112021REA000000000100000000000000258650                    000000000000000000000000000                00000000036876107809            0
3410001300135A00100923702116 000001000467 5KALYNE DA SILVA TEMOTEO DOMING1885346             01112021REA000000000100000000000000256212                    000000000000000000000000000                00000000012769923439            0
3410001300136A00100923700329 000000045683 7EDILAINE BARRETO              1884685             01112021REA000000000100000000000000254410                    000000000000000000000000000                00000000021606442856            0
3410001300137A00100923701236 000000002406 6JACKELINE BRUNO COUTO         1880862             01112021REA000000000100000000000000254100                    000000000000000000000000000                00000000037388361871            0
3410001300138A00100923702992 000000072446 7DARCY MORAES CARVALHO DE ARAUJ1885075             01112021REA000000000100000000000000253770                    000000000000000000000000000                00000000012731960400            0
3410001300139A00100923702879 000000007882 4RENE FERRARI                  1883912             01112021REA000000000100000000000000252155                    000000000000000000000000000                00000000041285233808            0
3410001300140A00100923700195 000000252561 5ERICK RIBEIRO PIMENTA         1922354             01112021REA000000000100000000000000250647                    000000000000000000000000000                00000000045934604848            0
3410001300141A00100923700726 000001004484 7BEATRYZ TAVARES MOREIRA       1863983             01112021REA000000000300000000000000247350                    000000000000000000000000000                00000000006841656350            0
3410001300142A00100923700112 000000232501 2TIAGO FERREIRA DE SOUZA       1876021             01112021REA000000000100000000000000246006                    000000000000000000000000000                00000000031124114807            0
3410001300143A00100923702274 000000022475 8ALEXANDRE GOMES JUNIOR        1878306             01112021REA000000000100000000000000246005                    000000000000000000000000000                00000000090710401191            0
3410001300144A00100923700995 000000048698 1JOAO NILSON DA CAMARA         1861576             01112021REA000000000100000000000000245337                    000000000000000000000000000                00000000033599440468            0
3410001300145A00100923701040 000000001100 2PAULO APARECIDO DE SOUZA      1882792             01112021REA000000000100000000000000243955                    000000000000000000000000000                00000000003518926802            0
3410001300146A00100923702887 000000029940 5CAMILA SOARES                 1883913             01112021REA000000000100000000000000241905                    000000000000000000000000000                00000000013093415756            0
3410001300147A00100923700368 000000070861 5GUILHERME DOS SANTOS SILVA    1881554             01112021REA000000000100000000000000237806                    000000000000000000000000000                00000000042199138828            0
3410001300148A00100923705778 000000008376 3MARCILIA MANGUEIRA GUIMARAES  1875394             01112021REA000000000100000000000000231000                    000000000000000000000000000                00000000004694494465            0
3410001300149A00100923700178 000000010133 8JOSE ANGELO BERGAMO           1876366             01112021REA000000000100000000000000227554                    000000000000000000000000000                00000000008389898888            0
3410001300150A00100923701434 000000013181 4BEATRIZ DE ALMEIDA PINTO RODRI1882276             01112021REA000000000100000000000000221405                    000000000000000000000000000                00000000015278877740            0
3410001300151A00100923701460 000000500553 1PAULA CAROLINE GONCALVES COUTO1877862             01112021REA000000000100000000000000219354                    000000000000000000000000000                00000000002085010105            0
3410001300152A00100923706170 000000000921 0FLAVIA FELICIANA SILVA        1996427             01112021REA000000000100000000000000217000                    000000000000000000000000000                00000000004457917648            0
3410001300153A00100923701235 000000030115 9LUIZ CESAR VASCONCELOS        1886049             01112021REA000000000100000000000000216000                    000000000000000000000000000                00000000037726528168            0
3410001300154A00100923707275 000000050398 3VINICIUS HAMAIK SGANZERLA     1885565             01112021REA000000000100000000000000216000                    000000000000000000000000000                00000000007010360952            0
3410001300155A00100923700127 000000602166 2IRENE DOS SANTOS SILVA        1879144             01112021REA000000000100000000000000216000                    000000000000000000000000000                00000000025231891860            0
3410001300156A00100923703547 000000014575 0LUDIMILA SANTOS DO ESPIRITO SA1880785             01112021REA000000000300000000000000216000                    000000000000000000000000000                00000000008402970508            0
3410001300157A00100923700407 000001002599 0VERGINIA NOMINATO DE OLIVEIRA 1880723             01112021REA000000000300000000000000216000                    000000000000000000000000000                00000000030403777879            0
3410001300158A00100923701355 000000007946 4JOSE HENRIQUE ARANHA          1880213             01112021REA000000000100000000000000216000                    000000000000000000000000000                00000000042277173886            0
3410001300159A00100923701787 000000005331 7ELIZA TIEKO SUZUKI            1879647             01112021REA000000000100000000000000216000                    000000000000000000000000000                00000000072779969920            0
3410001300160A00100923701558 000000100031 4LULLIANY ALVES CORDEIRO       1979061             01112021REA000000000100000000000000214830                    000000000000000000000000000                00000000008342891640            0
3410001300161A00100923700207 000001000244 3MADALENA RIBEIRO CUGLER       1884723             01112021REA000000000300000000000000214128                    000000000000000000000000000                00000000035943262768            0
3410001300162A00100923702402 000000004716 3CLAUDIO CESAR SILVA           1883370             01112021REA000000000100000000000000213272                    000000000000000000000000000                00000000062620967600            0
3410001300163A00100923702265 000000043459 0ALLAN OLIVEIRA NASCIMENTO     1876382             01112021REA000000000100000000000000212310                    000000000000000000000000000                00000000023053217830            0
3410001300164A00100923703208 000001004145 7KARYNE ALBUQUERQUE CORDEIRO   1875770             01112021REA000000000300000000000000212100                    000000000000000000000000000                00000000009758350412            0
3410001300165A00100923705874 000000015101 7FRANCISCO EMERSON SERAFIM DA C1884661             01112021REA000000000100000000000000212008                    000000000000000000000000000                00000000079051685491            0
3410001300166A00100923700879 000000039667 2SERGIO BRUM                   1883500             01112021REA000000000100000000000000212008                    000000000000000000000000000                00000000016830466687            0
3410001300167A00100923702237 000000023811 2RENATO AGUIAR DE ARAUJO       1885442             01112021REA000000000100000000000000211860                    000000000000000000000000000                00000000041495663809            0
3410001300168A00100923703931 000000650038 2ANDRE LUIZ FIGUEIREDO ZACCARO 1878813             01112021REA000000000100000000000000210630                    000000000000000000000000000                00000000026920070855            0
3410001300169A00100923700387 000000015134 3GUILHERME VALENTE ELIAS       1874421             01112021REA000000000100000000000000210003                    000000000000000000000000000                00000000000139713018            0
3410001300170A00100923702402 000000004716 3CLAUDIO CESAR SILVA           1875174             01112021REA000000000100000000000000210000                    000000000000000000000000000                00000000062620967600            0
3410001300171A00100923707275 000000050398 3VINICIUS HAMAIK SGANZERLA     1877387             01112021REA000000000100000000000000210000                    000000000000000000000000000                00000000007010360952            0
3410001300172A00100923700315 000000060280 9NATALIA SALA                  1876531             01112021REA000000000100000000000000209010                    000000000000000000000000000                00000000044087552810            0
3410001300173A00100923705593 000000038875 0RENATO BARBOSA FAVACHO        1884545             01112021REA000000000100000000000000207259                    000000000000000000000000000                00000000080136788220            0
3410001300174A00100923703472 000000007609 0ANTONIO ZOTI PRADO            1874619             01112021REA000000000100000000000000205005                    000000000000000000000000000                00000000010045630780            0
3410001300175A00100923703726 000000103628 9MARCIA CAROLINE MESSA DA COSTA1869105             01112021REA000000000100000000000000205005                    000000000000000000000000000                00000000052132870268            0
3410001300176A00100923701902 000000019158 2EMERSON SILVA DE SOUZA        1876037             01112021REA000000000100000000000000205004                    000000000000000000000000000                00000000069348472100            0
3410001300177A00100923700322 000000063426 3JOAO PAULO LEITE DE SOUZA RODR1883115             01112021REA000000000100000000000000204801                    000000000000000000000000000                00000000032793716863            0
3410001300178A00100923701785 000000029752 6MARCELO DA SILVA DIAS         1864333             01112021REA000000000100000000000000201770                    000000000000000000000000000                00000000011005568774            0
3410001300179A00100923701790 000000183794 0JULIA SEVERINO PERES VIEIRA   1864637             01112021REA000000000100000000000000200905                    000000000000000000000000000                00000000015427798714            0
3410001300180A00100923703651 000000009027 1ROSALIA DOS ANJOS FERREIRA    1875691             01112021REA000000000100000000000000199185                    000000000000000000000000000                00000000063387883587            0
3410001300181A00100923702843 000000141698 7ADRIANA APARECIDA ALMEIDA IRAH1877062             01112021REA000000000100000000000000196805                    000000000000000000000000000                00000000027150622810            0
3410001300182A00100923702043 000001010416 5LINDSON BRUNO RIBEIRO DE SANTA1879455             01112021REA000000000300000000000000192705                    000000000000000000000000000                00000000009958753758            0
3410001300183A00100923701777 000000018065 3DANIEL GOMES DE CARVALHO JUNIO1884490             01112021REA000000000100000000000000189287                    000000000000000000000000000                00000000070043234127            0
3410001300184A00100923702390 000000168661 5RODRIGO NOGUEIRA DE FIGUEIREDO1864473             01112021REA000000000100000000000000187000                    000000000000000000000000000                00000000002902676506            0
3410001300185A00100923705749 000000040786 0HENRIQUE ALMEIDA GOMES        1878610             01112021REA000000000100000000000000184090                    000000000000000000000000000                00000000004247546902            0
3410001300186A00100923700430 000000604257 0JAIRO ALTAIR STADLER          1876783             01112021REA000000000100000000000000183475                    000000000000000000000000000                00000000055864643904            0
3410001300187A00100923700330 000000094850 0TATIANE NESI BUDNI            1880066             01112021REA000000000100000000000000182700                    000000000000000000000000000                00000000002948344948            0
3410001300188A00100923703571 000000021477 9MARCIA DE FREITAS PEREIRA BARR1880511             01112021REA000000000100000000000000180010                    000000000000000000000000000                00000000092518427520            0
3410001300189A00100923702425 000000043874 0RITA DE CACIA JESUS SANTOS DE 1880697             01112021REA000000000100000000000000180010                    000000000000000000000000000                00000000076810224572            0
3410001300190A00100923700978 000000316461 6MARIA AUTA FAGUNDES HISSA     1880929             01112021REA000000000100000000000000180010                    000000000000000000000000000                00000000025694227700            0
3410001300191A00100923706777 000001000880 8LARISSA PESSANHA ROSA         1880954             01112021REA000000000300000000000000180010                    000000000000000000000000000                00000000014904298756            0
3410001300192A00100923706343 000000000705 6MOISEIS FABIEN GAUTHIER       1884082             01112021REA000000000100000000000000180010                    000000000000000000000000000                00000000009572846400            0
3410001300193A00100923703006 000000035459 7BARBARA SANTOS                1885566             01112021REA000000000100000000000000180010                    000000000000000000000000000                00000000063149117534            0
3410001300194A00100923700415 000000152288 4CAMILA DOS SANTOS ANDRE       1885686             01112021REA000000000100000000000000180010                    000000000000000000000000000                00000000015202662785            0
3410001300195A00100923702572 000000062287 7THOMAS BRAGA                  1886011             01112021REA000000000100000000000000180010                    000000000000000000000000000                00000000005025994306            0
3410001300196A00100923700239 000000078374 9ELIANE PUMAR SANTANA          1882673             01112021REA000000000100000000000000178887                    000000000000000000000000000                00000000041729838553            0
3410001300197A00100923707737 000000057441 4AMANDA ROVEDA MUNHAO          1870282             01112021REA000000000100000000000000178500                    000000000000000000000000000                00000000011004993773            0
3410001300198A00100923701593 000000150403 7WELLINGTON MATIAS DOS SANTOS  1865757             01112021REA000000000100000000000000176809                    000000000000000000000000000                00000000020912617349            0
3410001300199A00100923700987 000000034147 9THIAGO GONCALVES DE MENDONCA  1879562             01112021REA000000000100000000000000176303                    000000000000000000000000000                00000000008512866667            0
3410001300200A00100923703078 000000017147 6VIVIAN CABRAL BRUST           1865464             01112021REA000000000100000000000000174729                    000000000000000000000000000                00000000003673701746            0
3410001300201A00100923706592 000000003099 6PETERSON TEIXEIRA DA SILVA    1874649             01112021REA000000000100000000000000172610                    000000000000000000000000000                00000000008851738726            0
3410001300202A00100923703284 000000009612 1JHESSICA MIELKE               1883703             01112021REA000000000100000000000000171729                    000000000000000000000000000                00000000007312712975            0
3410001300203A00100923702272 000000267777 6BARBARA MAGUETA               1879075             01112021REA000000000100000000000000170100                    000000000000000000000000000                00000000038393121833            0
3410001300204A00100923701851 000000062272 9GUSTAVO DIOGO SILVA           1879320             01112021REA000000000100000000000000170100                    000000000000000000000000000                00000000041914681894            0
3410001300205A00100923701669 000000531255 8MAURICIO PEREIRA BARCELLOS    1884222             01112021REA000000000100000000000000168486                    000000000000000000000000000                00000000008622120732            0
3410001300206A00100923705749 000000040786 0HENRIQUE ALMEIDA GOMES        1878614             01112021REA000000000100000000000000168000                    000000000000000000000000000                00000000004247546902            0
3410001300207A00100923707031 000000006239 1LEONARDO SALES                1861960             01112021REA000000000100000000000000166582                    000000000000000000000000000                00000000012955038750            0
3410001300208A00100923701452 000000058882 2CLAUDIO BENEDITO DA SILVA     1882242             01112021REA000000000100000000000000166053                    000000000000000000000000000                00000000000456010700            0
3410001300209A00100923707125 000000316701 1IVA DOS SANTOS RODE JUNIOR    1861955             01112021REA000000000100000000000000161954                    000000000000000000000000000                00000000086075412506            0
3410001300210A00100923700270 000000067907 0HELANA DO CARMO CORREIA       1876355             01112021REA000000000100000000000000155803                    000000000000000000000000000                00000000001259624528            0
3410001300211A00100923701842 000000080714 1MARIA DAS GRACAS DA SILVA     1882893             01112021REA000000000100000000000000153926                    000000000000000000000000000                00000000028170199115            0
3410001300212A00100923701280 000000011386 7MARCOS ROBERTO PETRIMPERNI    1883658             01112021REA000000000100000000000000153753                    000000000000000000000000000                00000000002239085843            0
3410001300213A00100923702893 000000152661 8MATHEUS GONCALVES MONTEIRO    1874522             01112021REA000000000100000000000000151840                    000000000000000000000000000                00000000019169697710            0
3410001300214A00100923700234 000000050525 0CRISTIAN FERNANDO LANDO       1877883             01112021REA000000000100000000000000151703                    000000000000000000000000000                00000000002790711160            0
3410001300215A00100923702753 000000005649 9ANNA CRISTINA LOPES REGO CAVAL1877407             01112021REA000000000100000000000000150528                    000000000000000000000000000                00000000005167233755            0
3410001300216A00100923700069 000000112247 9IVANILDO MENDES DE ARAUJO     1871701             01112021REA000000000100000000000000150001                    000000000000000000000000000                00000000003397083877            0
3410001300217A00100923707152 000000035081 8TATIANA TEIXEIRA AZEVEDO      1836792             01112021REA000000000100000000000000145605                    000000000000000000000000000                00000000032454073862            0
3410001300218A00100923703184 000000402029 4PAULA CERES MARIA DA SILVA LOP1844009             01112021REA000000000100000000000000145605                    000000000000000000000000000                00000000036978230782            0
3410001300219A00100923703522 000000039657 5THULIO ALVES NUNES VIEIRA     1837207             01112021REA000000000100000000000000143525                    000000000000000000000000000                00000000007383769570            0
3410001300220A00100923701927 000000014264 6DANIEL CIVA                   1879627             01112021REA000000000100000000000000142800                    000000000000000000000000000                00000000091229197087            0
3410001300221A00100923700723 000000083007 0IAGO HOSANO DE SOUSA          1861959             01112021REA000000000100000000000000141594                    000000000000000000000000000                00000000005232298364            0
3410001300222A00100923706536 000000555739 9SOLANGE LIMA FARIAS           1881814             01112021REA000000000100000000000000139403                    000000000000000000000000000                00000000052320553720            0
3410001300223A00100923703298 000000001221 1ISABELLE FRANCIOSO            1878219             01112021REA000000000100000000000000139403                    000000000000000000000000000                00000000042027653899            0
3410001300224A00100923703553 000000087688 7MARCOS SACRAMENTO OLIVEIRA    1985525             01112021REA000000000100000000000000138880                    000000000000000000000000000                00000000062960393520            0
3410001300225A00100923702727 000000046061 3MARCO AURELIO DUARTE          1882273             01112021REA000000000100000000000000138170                    000000000000000000000000000                00000000006469046983            0
3410001300226A00100923702677 000000002253 5NEIDE MISSAE UIETI RIBEIRO DA 1857931             01112021REA000000000100000000000000137508                    000000000000000000000000000                00000000085257010844            0
3410001300227A00100923701501 000000100119 1MARIA LUCIA                   1877342             01112021REA000000000100000000000000137353                    000000000000000000000000000                00000000064232840672            0
3410001300228A00100923700884 000000785566 4IVAN VICTOR ADAI DE OLIVEIRA  1875898             01112021REA000000000100000000000000135303                    000000000000000000000000000                00000000034268122826            0
3410001300229A00100923701593 000000016582 4ALVARO FERNANDES              1886161             01112021REA000000000100000000000000134406                    000000000000000000000000000                00000000001499703317            0
3410001300230A00100923701975 000000005298 1EDMILSON SARDEIRO SERAFIM     1875976             01112021REA000000000100000000000000133253                    000000000000000000000000000                00000000003666835198            0
3410001300231A00100923702158 000000008160 4GESSE DE OLIVEIRA CARDOZO     1878131             01112021REA000000000100000000000000129153                    000000000000000000000000000                00000000055860095104            0
3410001300232A00100923703512 000000001777 9ROSELI REICHERT DA SILVA      1855861             01112021REA000000000100000000000000128965                    000000000000000000000000000                00000000064168972968            0
3410001300233A00100923700903 000000007488 8MANOEL JOSE DOS SANTOS JUNIOR 1851896             01112021REA000000000100000000000000128106                    000000000000000000000000000                00000000004455934405            0
3410001300234A00100923703251 000000035057 5ROGERIO MENDES                1884691             01112021REA000000000100000000000000126885                    000000000000000000000000000                00000000000188133640            0
3410001300235A00100923700662 000000030856 0ANA LUZIA SILVA CARDOSO       1879737             01112021REA000000000300000000000000126000                    000000000000000000000000000                00000000056565402515            0
3410001300236A00100923700254 000000009497 8ANTONIO CARLOS VERISSIMO JUNIO1879802             01112021REA000000000100000000000000126000                    000000000000000000000000000                00000000027642797877            0
3410001300237A00100923700254 000000009497 8ANTONIO CARLOS VERISSIMO JUNIO1879805             01112021REA000000000100000000000000126000                    000000000000000000000000000                00000000027642797877            0
3410001300238A00100923703614 000000015314 1TERESINHA NEVES DE ANDRADE    1882255             01112021REA000000000100000000000000125052                    000000000000000000000000000                00000000019178835879            0
3410001300239A00100923702239 000000045704 3BRUNA BRITO                   1882318             01112021REA000000000100000000000000125052                    000000000000000000000000000                00000000052914330278            0
3410001300240A00100923702696 000000007746 1ELIZABETH FERREIRA DE OLIVEIRA1882694             01112021REA000000000100000000000000125052                    000000000000000000000000000                00000000012200091800            0
3410001300241A00100923700491 000000720932 0LEANDRO SANTANNA              1879003             01112021REA000000000300000000000000125001                    000000000000000000000000000                00000000097201332015            0
3410001300242A00100923703413 000000005722 3MONIQUE ISABELLE SILVA DE ANDR1876023             01112021REA000000000100000000000000125001                    000000000000000000000000000                00000000009596258443            0
3410001300243A00100923700107 000000301306 5EDNA SARRACINI                1873706             01112021REA000000000100000000000000125001                    000000000000000000000000000                00000000016339507867            0
3410001300244A00100923700135 000000104517 2MATHEUS LOPES DO NASCIMENTO   1836935             01112021REA000000000100000000000000123003                    000000000000000000000000000                00000000015943564756            0
3410001300245A00100923700322 000000063426 3JOAO PAULO LEITE DE SOUZA RODR1883471             01112021REA000000000100000000000000123003                    000000000000000000000000000                00000000032793716863            0
3410001300246A00100923702168 000001001873 0MARICIA NUNES BARBOSA CARDOSO 1879490             01112021REA000000000300000000000000123002                    000000000000000000000000000                00000000002764434626            0
3410001300247A00100923700306 000000052587 1REBECA DE SA DIAS             1880669             01112021REA000000000100000000000000123002                    000000000000000000000000000                00000000006544946303            0
3410001300248A00100923703237 000000048130 0ANDREIA CRISTINA ASSIS DE JESU1881091             01112021REA000000000300000000000000123002                    000000000000000000000000000                00000000081041861591            0
3410001300249A00100923702396 000000016937 4EDUARDO DE SOUZA MELO         1884591             01112021REA000000000100000000000000120645                    000000000000000000000000000                00000000079431801272            0
3410001300250A00100923703739 000000065195 8MICHELE CAMPOS DA SILVA       1886187             01112021REA000000000100000000000000117606                    000000000000000000000000000                00000000081734670215            0
3410001300251A00100923702014 000000023977 1FREDERICO FERNANDES DE SOUZA M1879363             01112021REA000000000100000000000000115500                    000000000000000000000000000                00000000012387838726            0
3410001300252A00100923705247 000000126290 4JESSICA ANDREA BERTO DELGADO  1875844             01112021REA000000000100000000000000114803                    000000000000000000000000000                00000000002379299102            0
3410001300253A00100923701479 000000032272 5EVANILSON CRUZ LUZ            1880116             01112021REA000000000100000000000000114802                    000000000000000000000000000                00000000003356573896            0
3410001300254A00100923700628 000000001712 4ALISSANDRO FERREIRA OLIVEIRA  1843977             01112021REA000000000100000000000000113405                    000000000000000000000000000                00000000091593883315            0
3410001300255A00100923700539 000000150655 2MAISE DE CARVALHO AMORIM      1884860             01112021REA000000000100000000000000113405                    000000000000000000000000000                00000000020771584768            0
3410001300256A00100923700128 000000210373 7FELIPE RIBEIRO FAKRI          1851872             01112021REA000000000100000000000000112753                    000000000000000000000000000                00000000033751164898            0
3410001300257A00100923701294 000000372354 2EDUARDO RIBEIRO DOS SANTOS    1876924             01112021REA000000000100000000000000112752                    000000000000000000000000000                00000000056656297234            0
3410001300258A00100923702282 000000031682 2LUAN ZUCATTO                  1874217             01112021REA000000000100000000000000112501                    000000000000000000000000000                00000000036848474886            0
3410001300259A00100923702134 000000210454 7MARILIA DE OLIVEIRA NASI      1879227             01112021REA000000000100000000000000111300                    000000000000000000000000000                00000000055899161949            0
3410001300260A00100923700564 000000719986 4CESAR CARVALHO NOGUEIRA DIOGEN1875643             01112021REA000000000100000000000000109620                    000000000000000000000000000                00000000062257897315            0
3410001300261A00100923701545 000000650983 5EDA BARRETO ANTUNES GUIMARAES 1924340             01112021REA000000000100000000000000109207                    000000000000000000000000000                00000000011668539772            0
3410001300262A00100923700759 000000030601 0JONILSON DIAS SOUZA           1872611             01112021REA000000000100000000000000107489                    000000000000000000000000000                00000000076347729253            0
3410001300263A00100923700759 000000030601 0JONILSON DIAS SOUZA           1876244             01112021REA000000000100000000000000107100                    000000000000000000000000000                00000000076347729253            0
3410001300264A00100923702825 000000071051 2WESLEY NASCIMENTO             1884983             01112021REA000000000100000000000000107000                    000000000000000000000000000                00000000036482407811            0
3410001300265A00100923700427 000000100835 8AZRIEL CORREIA PATRICIO MORAIS1882846             01112021REA000000000100000000000000106602                    000000000000000000000000000                00000000094116113204            0
3410001300266A00100923701374 000000006269 3EDUARDO EMIDIO OLIVEIRA BORGES1874766             01112021REA000000000100000000000000106602                    000000000000000000000000000                00000000084645458272            0
3410001300267A00100923700241 000000450371 6RENATO LEITE COSTA MAGALHAES  1837781             01112021REA000000000100000000000000106085                    000000000000000000000000000                00000000069074178120            0
3410001300268A00100923700144 000000181107 0LUCIANO LEMOS                 1884499             01112021REA000000000100000000000000106004                    000000000000000000000000000                00000000011002718805            0
3410001300269A00100923701706 000000001139 8MURILO PIRES LOURENCO         1859724             01112021REA000000000100000000000000105580                    000000000000000000000000000                00000000008420022608            0
3410001300270A00100923703579 000000259695 4EUNICE RAMOS                  1886406             01112021REA000000000100000000000000105005                    000000000000000000000000000                00000000045850178520            0
3410001300271A00100923701621 000000043066 8BRUNA LOPES DA SILVA          1876191             01112021REA000000000100000000000000105000                    000000000000000000000000000                00000000045478116874            0
3410001300272A00100923700589 000000016844 0RICARDO MARTINS DE SOUSA      1877408             01112021REA000000000100000000000000105000                    000000000000000000000000000                00000000086797913187            0
3410001300273A00100923701627 000000024478 3MARCOS VINICIUS ANTUNES QUEIRO1881507             01112021REA000000000100000000000000105000                    000000000000000000000000000                00000000006588012608            0
3410001300274A00100923701084 000000274925 4ANTONIO PAULO CAMPELO RIHL    1881816             01112021REA000000000100000000000000104552                    000000000000000000000000000                00000000080467350787            0
3410001300275A00100923705874 000000015101 7FRANCISCO EMERSON SERAFIM DA C1876239             01112021REA000000000100000000000000104552                    000000000000000000000000000                00000000079051685491            0
3410001300276A00100923701638 000000004710 4RAFAEL SANCHES VARGAS         1987005             01112021REA000000000300000000000000104160                    000000000000000000000000000                00000000039355817851            0
3410001300277A00100923703176 000000017437 8VAGNER CAMPELO RIBEIRO        1836330             01112021REA000000000100000000000000102502                    000000000000000000000000000                00000000008476627726            0
3410001300278A00100923703651 000001002321 1FELIPE ALMEIDA PEREIRA        1860926             01112021REA000000000300000000000000102502                    000000000000000000000000000                00000000002752427573            0
3410001300279A00100923703231 000000119959 5FELIPE FEISTAUER GOMES        1878396             01112021REA000000000100000000000000102502                    000000000000000000000000000                00000000003331847500            0
3410001300280A00100923703201 000000279048 3PHILLIP SILVA                 1884649             01112021REA000000000100000000000000102500                    000000000000000000000000000                00000000005515396405            0
3410001300281A00100923702158 000000008160 4DEBORA DE OLIVEIRA CARDOZO    1877932             01112021REA000000000100000000000000102295                    000000000000000000000000000                00000000033368152823            0
3410001300282A00100923701842 000000085814 5CLEBER CAVALCANTE ROCHA       1884435             01112021REA000000000100000000000000100000                    000000000000000000000000000                00000000003710515173            0
3410001300283A00100923703146 000000040939 1ENZO CASTILHO                 1883437             01112021REA000000000100000000000000100000                    000000000000000000000000000                00000000001749760622            0
3410001300284A00100923700520 000000076819 7OSMAR FERNANDES               1867003             01112021REA000000000100000000000000096601                    000000000000000000000000000                00000000006557966812            0
3410001300285A00100923703439 000000202328 8RITA DE CASSIA SOUSA LIMA     1861573             01112021REA000000000100000000000000095404                    000000000000000000000000000                00000000008784512423            0
3410001300286A00100923703191 000000076629 1BRUNO SADAKANE MAIORINO       1987028             01112021REA000000000100000000000000094520                    000000000000000000000000000                00000000022004324880            0
3410001300287A00100923701177 000000446859 7CAROLINA VICENTIN DE ARAUJO MA1882068             01112021REA000000000100000000000000094500                    000000000000000000000000000                00000000027111894812            0
3410001300288A00100923700628 000000011360 3JOSE ADEMIR MONTEIRO          1886436             01112021REA000000000100000000000000092500                    000000000000000000000000000                00000000005139813300            0
3410001300289A00100923707170 000000007967 7JOSE MARIA RODRIGUES NETO     1877827             01112021REA000000000100000000000000092400                    000000000000000000000000000                00000000061815594268            0
3410001300290A00100923702903 000000006414 9DIEGO MARCOS DIAS BARBOSA DIAS1875804             01112021REA000000000100000000000000092400                    000000000000000000000000000                00000000007782370604            0
3410001300291A00100923702149 000000025232 8CARLOS NORBERTO DEFAVERI      1881850             01112021REA000000000100000000000000092005                    000000000000000000000000000                00000000020902190091            0
3410001300292A00100923700649 000000027030 0RODRIGO RAMIRES BARROSO SILVA 1908928             01112021REA000000000100000000000000091400                    000000000000000000000000000                00000000005669551303            0
3410001300293A00100923700396 000000232124 6RODRIGO SILVA                 1883561             01112021REA000000000100000000000000090005                    000000000000000000000000000                00000000005140734621            0
3410001300294A00100923702574 000000052158 2TALMON ALMEIDA JARDIM         1837835             01112021REA000000000100000000000000090005                    000000000000000000000000000                00000000049529903898            0
3410001300295A00100923706897 000000006416 5CRESO ALBERTO BEM DE ALMEIDA  1862144             01112021REA000000000100000000000000088034                    000000000000000000000000000                00000000012848442778            0
3410001300296A00100923703264 000000001555 5JOSE LUIZ PAGANINI            1884625             01112021REA000000000100000000000000086923                    000000000000000000000000000                00000000084123540791            0
3410001300297A00100923700179 000000203235 0LUANA APARECIDA BELO ALVES    1988338             01112021REA000000000100000000000000086800                    000000000000000000000000000                00000000007905997910            0
3410001300298A00100923706657 000000168848 0CLOVIS ANSELMI                1878036             01112021REA000000000100000000000000086100                    000000000000000000000000000                00000000002206960982            0
3410001300299A00100923703271 000000401689 0PEDRO HENRIQUE SCARAVONATTO ZA1836612             01112021REA000000000100000000000000086004                    000000000000000000000000000                00000000005046024039            0
3410001300300A00100923702516 000000159528 8DAYANA DE OLIVEIRA FAGUNDES   1883660             01112021REA000000000100000000000000086004                    000000000000000000000000000                00000000036575056873            0
3410001300301A00100923700501 000000044757 9TAVIS MASSAYUKI IWASAKI       1836327             01112021REA000000000100000000000000085404                    000000000000000000000000000                00000000000499876822            0
3410001300302A00100923707975 000000002711 1UALAS ALVES RIBEIRO           1881056             01112021REA000000000100000000000000085000                    000000000000000000000000000                00000000071222260182            0
3410001300303A00100923703931 000000364594 0DANIEL AGUIAR WILMERS         1989298             01112021REA000000000100000000000000084630                    000000000000000000000000000                00000000027686872866            0
3410001300304A00100923700353 000000037573 0RAFAEL BUSARELLO              1880274             01112021REA000000000100000000000000083160                    000000000000000000000000000                00000000005369654980            0
3410001300305A00100923702731 000000051290 7FABRICIA DE ARAUJO RANGEL WERN1883376             01112021REA000000000100000000000000082217                    000000000000000000000000000                00000000009876837729            0
3410001300306A00100923700864 000000017068 2FELIPE VASCONCELLOS           1880082             01112021REA000000000100000000000000082004                    000000000000000000000000000                00000000011927486700            0
3410001300307A00100923703294 000000124189 3PEDRO ARRAIS                  1878505             01112021REA000000000100000000000000082004                    000000000000000000000000000                00000000051550555987            0
3410001300308A00100923700482 000000615325 9OSANIL FERREIRA MACHADO       1876098             01112021REA000000000100000000000000081900                    000000000000000000000000000                00000000014349361200            0
3410001300309A00100923701057 000001008360 5MARIA MIRANDA AGUIAR DE SOUZA 1851467             01112021REA000000000300000000000000080004                    000000000000000000000000000                00000000002238199721            0
3410001300310A00100923702757 000001000669 4ERINALDO BARBOSA PEREIRA      1884876             01112021REA000000000300000000000000080004                    000000000000000000000000000                00000000009278851744            0
3410001300311A00100923705673 000000000113 9LUIS GUSTAVO KOLBA KOLBA      1881784             01112021REA000000000100000000000000078960                    000000000000000000000000000                00000000001073221024            0
3410001300312A00100923706450 000000000461 8ALDENISE ALVES SOUSA          1844064             01112021REA000000000100000000000000078004                    000000000000000000000000000                00000000085656011291            0
3410001300313A00100923703267 000000126937 2TIAGO RIBEIRO NASCIMENTO      2000143             01112021REA000000000100000000000000077589                    000000000000000000000000000                00000000034781317820            0
3410001300314A00100923707170 000000022906 7ANTONIO LISBOA SANTOS SILVA JU1883986             01112021REA000000000100000000000000076004                    000000000000000000000000000                00000000000636480240            0
3410001300315A00100923702891 000000300121 0CLAUDIA PRISCILA DA SILVA RAMO1851429             01112021REA000000000100000000000000076004                    000000000000000000000000000                00000000005437941480            0
3410001300316A00100923703251 000000046312 4ANA FLAVIA FREITAS OLIVEIRA   1987107             01112021REA000000000100000000000000075950                    000000000000000000000000000                00000000006719507621            0
3410001300317A00100923701236 000000195861 5JUAN DEVITTE                  1985558             01112021REA000000000100000000000000075060                    000000000000000000000000000                00000000041740423810            0
3410001300318A00100923700108 000000287291 9VALERIA DIOLINA DE LIMA       1883142             01112021REA000000000100000000000000075000                    000000000000000000000000000                00000000021581226845            0
3410001300319A00100923701737 000000019721 1KAUANA VICENTE NICOCELLI      1880948             01112021REA000000000100000000000000075000                    000000000000000000000000000                00000000009356005907            0
3410001300320A00100923702014 000000023977 1FREDERICO FERNANDES DE SOUZA M1879347             01112021REA000000000100000000000000074004                    000000000000000000000000000                00000000012387838726            0
3410001300321A00100923703726 000000157409 4RICARDO ELIAS DUARTE RABELLO  1886076             01112021REA000000000100000000000000074004                    000000000000000000000000000                00000000004503334697            0
3410001300322A00100923702605 000000016067 9ANDRE DA SILVA MORAES         1876518             01112021REA000000000100000000000000072004                    000000000000000000000000000                00000000002714155766            0
3410001300323A00100923700098 000000084185 4EDSON GAMEIRO JUNIOR          1881621             01112021REA000000000100000000000000072004                    000000000000000000000000000                00000000040300091826            0
3410001300324A00100923703818 000000002348 5DOUGLAS HENRIQUE DA SILVA     1863337             01112021REA000000000100000000000000070603                    000000000000000000000000000                00000000035933108804            0
3410001300325A00100923700687 000000700260 2NEUZA FARIAS RODRIGUES        1884329             01112021REA000000000100000000000000070004                    000000000000000000000000000                00000000002549138309            0
3410001300326A00100923701441 000000051606 6FABIANO DA SILVA SOUZA DA SILV1885191             01112021REA000000000100000000000000068040                    000000000000000000000000000                00000000042476641820            0
3410001300327A00100923705808 000000011574 6ANTONIO LIMA                  1881537             01112021REA000000000100000000000000067500                    000000000000000000000000000                00000000086711962320            0
3410001300328A00100923706468 000000130277 9DUBIANCA ULTRAMARI FREITAS PIC1863650             01112021REA000000000100000000000000067201                    000000000000000000000000000                00000000029585906821            0
3410001300329A00100923703497 000000093473 9LAYS CEDRAZ                   1879201             01112021REA000000000100000000000000067116                    000000000000000000000000000                00000000001270945556            0
3410001300330A00100923700769 000000002423 6DANIELLE DE ALENCAR OLIVEIRA  1875662             01112021REA000000000100000000000000066780                    000000000000000000000000000                00000000061697052304            0
3410001300331A00100923701893 000000038907 2BRENO ROCHA LEITE DINIZ RIBAS 1862062             01112021REA000000000100000000000000066003                    000000000000000000000000000                00000000007119554689            0
3410001300332A00100923702224 000000048299 4GERALDO HONORATO DOS SANTOS JU1881926             01112021REA000000000100000000000000064003                    000000000000000000000000000                00000000035079941863            0
3410001300333A00100923700000 000000005935 8MARIANA GOUVEA                1880488             01112021REA000000000100000000000000064003                    000000000000000000000000000                00000000015361966738            0
3410001300334A00100923701820 000000515408 1WANDERSON FONSECA MENDONCA    1966029             01112021REA000000000100000000000000063940                    000000000000000000000000000                00000000094168792315            0
3410001300335A00100923700665 000000024476 7GUILHERME AUGUSTO DE BRITO NEV1884634             01112021REA000000000100000000000000063603                    000000000000000000000000000                00000000010572862814            0
3410001300336A00100923700144 000000181107 0LUCIANO LEMOS                 1883205             01112021REA000000000100000000000000063603                    000000000000000000000000000                00000000011002718805            0
3410001300337A00100923701706 000000251952 6CRISTINA GONCALVES VILAS BOAS 1880232             01112021REA000000000100000000000000063000                    000000000000000000000000000                00000000093218818672            0
3410001300338A00100923703854 000000010819 7LUIS EDUARDO MOURA            2000757             01112021REA000000000100000000000000062930                    000000000000000000000000000                00000000006655545676            0
3410001300339A00100923702855 000000010429 9SERGIO ILHARCO MOURAO         1879496             01112021REA000000000100000000000000062500                    000000000000000000000000000                00000000000780493850            0
3410001300340A00100923703901 000000005878 5VICTOR CARVALHO BORRE         1885555             01112021REA000000000100000000000000062003                    000000000000000000000000000                00000000008662222781            0
3410001300341A00100923701230 000000041583 9EMANUEL PEREIRA               1884993             01112021REA000000000100000000000000062003                    000000000000000000000000000                00000000006782919427            0
3410001300342A00100923700074 000000030120 5RICARDO JAMPANI PICININI      1998171             01112021REA000000000100000000000000060760                    000000000000000000000000000                00000000020645220850            0
3410001300343A00100923705703 000000014072 4ANIBO KLEEMANN                1991660             01112021REA000000000100000000000000060760                    000000000000000000000000000                00000000033374864953            0
3410001300344A00100923701994 000000038602 2FERNANDA CALIXTO DA COSTA     1882617             01112021REA000000000100000000000000060003                    000000000000000000000000000                00000000078822572149            0
3410001300345A00100923700662 000000030856 0ANA LUZIA SILVA CARDOSO       1881177             01112021REA000000000300000000000000060003                    000000000000000000000000000                00000000056565402515            0
3410001300346A00100923701180 000000041166 3NARCISIO MENDES CUNHA JUNIOR  1861832             01112021REA000000000100000000000000060003                    000000000000000000000000000                00000000005128632377            0
3410001300347A00100923702152 000000136217 8VALCIR CHIESA                 1880991             01112021REA000000000100000000000000060000                    000000000000000000000000000                00000000073665690978            0
3410001300348A00100923707160 000000668949 3VALDIR DONIZETE PIMENTA       1876390             01112021REA000000000100000000000000060000                    000000000000000000000000000                00000000025491968803            0
3410001300349A00100923700215 000000228962 8RONNYE PETERSON DE FREITAS    1882719             01112021REA000000000100000000000000060000                    000000000000000000000000000                00000000024927005852            0
3410001300350A00100923702791 000000557441 2ADRIANO RODRIGUES             1880846             01112021REA000000000100000000000000058800                    000000000000000000000000000                00000000083674926768            0
3410001300351A00100923700268 000000611642 6DANIEL MORIM DE CAMPOS VELHO  1999129             01112021REA000000000100000000000000056420                    000000000000000000000000000                00000000066671329087            0
3410001300352A00100923701338 000000683554 6CARLOS ALBERTO RODRIGUES RUSSO1990187             01112021REA000000000100000000000000056420                    000000000000000000000000000                00000000036487355860            0
3410001300353A00100923701838 000000002282 9FERNANDA ROCHA                1862611             01112021REA000000000100000000000000055904                    000000000000000000000000000                00000000022778786856            0
3410001300354A00100923700656 000001005479 6DILSON RANZANI MOREIRA        1880960             01112021REA000000000300000000000000054910                    000000000000000000000000000                00000000022827070871            0
3410001300355A00100923701019 000000093695 2DAYVISON ALVARES              1881131             01112021REA000000000100000000000000052500                    000000000000000000000000000                00000000003275915444            0
3410001300356A00100923703262 000000012325 0VINICIUS FERREIRA DE FREITAS  1877237             01112021REA000000000100000000000000052500                    000000000000000000000000000                00000000010317722786            0
3410001300357A00100923700190 000000002839 8ANGELO RODRIGO DE OLIVEIRA BEN1993708             01112021REA000000000100000000000000052080                    000000000000000000000000000                00000000039470433840            0
3410001300358A00100923703100 000000581169 4MARCUS VINICIUS AGUIAR RODRIGU1860847             01112021REA000000000100000000000000051389                    000000000000000000000000000                00000000032187402827            0
3410001300359A00100923700146 000000006099 2AMANDA LETICIA DE SOUZA MEDEIR1880899             01112021REA000000000100000000000000050400                    000000000000000000000000000                00000000042217123840            0
3410001300360A00100923702785 000000018251 6DOUGLAS PAGANO VERDINI        1880933             01112021REA000000000100000000000000050000                    000000000000000000000000000                00000000011844032795            0
3410001300361A00100910401668 000000046001 7JANDUY XAVIER                 1880366             01112021REA000000000300000000000000050000                    000000000000000000000000000                00000000005779649847            0
3410001300362A00100923700160 000000342128 7EDMAR GOMES DA SILVA          1990024             01112021REA000000000100000000000000049910                    000000000000000000000000000                00000000009215726896            0
3410001300363A00100923703295 000000002398 1THIAGO MIRANDA                1946499             01112021REA000000000100000000000000049173                    000000000000000000000000000                00000000034218960895            0
3410001300364A00100923701645 000000550214 4FABRICIO FERREIRA ALVES RODRIG1880781             01112021REA000000000100000000000000048602                    000000000000000000000000000                00000000009833012710            0
3410001300365A00100923703481 000000009649 0ISAAC ARAUJO                  1873015             01112021REA000000000100000000000000048258                    000000000000000000000000000                00000000037911846871            0
3410001300366A00100923702257 000000008191 4LUCAS GONCALVES               1886541             01112021REA000000000100000000000000047500                    000000000000000000000000000                00000000041161287833            0
3410001300367A00100923701232 000000310696 9ANTONIO JOSE DA SILVA         1882152             01112021REA000000000100000000000000046200                    000000000000000000000000000                00000000003942810476            0
3410001300368A00100923702516 000000410107 3THOMAS GONNCALEZ BASSETTO     1982106             01112021REA000000000100000000000000045570                    000000000000000000000000000                00000000032505976864            0
3410001300369A00100923702640 000000557038 7JAQUES LAGE MAGALHAES CALDEIRA1983870             01112021REA000000000100000000000000045570                    000000000000000000000000000                00000000009434254680            0
3410001300370A00100923703496 000000016073 3LUIS ALBERTO CALDEIRA SOUZA   1997022             01112021REA000000000100000000000000045570                    000000000000000000000000000                00000000001307264603            0
3410001300371A00100923703306 000000011153 8JOAO CARDOSO DA SILVA JUNIOR  1875647             01112021REA000000000100000000000000045000                    000000000000000000000000000                00000000005783863564            0
3410001300372A00100923706452 000000006022 4CLAIRTON VALDEMAR KRUGER      1998248             01112021REA000000000100000000000000043400                    000000000000000000000000000                00000000064378861100            0
3410001300373A00100923700606 000000151858 5CLEBER ADRIANO DA SILVA       1999361             01112021REA000000000100000000000000043400                    000000000000000000000000000                00000000070029920159            0
3410001300374A00100923700254 000000022344 1JAINE VIEIRA BARBOSA          1880245             01112021REA000000000100000000000000042500                    000000000000000000000000000                00000000006237346309            0
3410001300375A00100923702516 000000159528 8DAYANA DE OLIVEIRA FAGUNDES   1883662             01112021REA000000000100000000000000042402                    000000000000000000000000000                00000000036575056873            0
3410001300376A00100923703238 000000420340 2LAURA MARIA AMARO MARTINS     1873088             01112021REA000000000100000000000000042001                    000000000000000000000000000                00000000001305362373            0
3410001300377A00100923702591 000000012576 8AIRTON REGIS DA SILVA         1865348             01112021REA000000000100000000000000042001                    000000000000000000000000000                00000000035265320873            0
3410001300378A00100923702860 000000001230 0GERALDO BARBOSA               1879829             01112021REA000000000100000000000000042000                    000000000000000000000000000                00000000006545470841            0
3410001300379A00100923700328 000000040915 4ERLAINE MARCIEL VAZ DA SILVEIR1877206             01112021REA000000000100000000000000042000                    000000000000000000000000000                00000000037003981823            0
3410001300380A00100923703739 000000023476 1JESSICA SANTOS ROQUE          1878300             01112021REA000000000100000000000000041402                    000000000000000000000000000                00000000078355575253            0
3410001300381A00100923702811 000000013480 5MARA ADRIANA DE OLIVEIRA LOUZA1851820             01112021REA000000000100000000000000041402                    000000000000000000000000000                00000000090252888200            0
3410001300382A00100923701577 000000673498 7FABIO RODRIGUES RODRIGUES     1873149             01112021REA000000000100000000000000040000                    000000000000000000000000000                00000000028863349878            0
3410001300383A00100923701567 000000037484 9THIAGO TELES BANDEIRA ASSIS   1874509             01112021REA000000000100000000000000038768                    000000000000000000000000000                00000000008377439662            0
3410001300384A00100923701543 000001004892 3CLOVIS AUGUSTO DE ARAGAO BULCA1879921             01112021REA000000000300000000000000037802                    000000000000000000000000000                00000000044882602504            0
3410001300385A00100923700747 000000015971 9VALDERLUCIA GOIANA MELO       1885306             01112021REA000000000100000000000000037802                    000000000000000000000000000                00000000077108906368            0
3410001300386A00100923706580 000000006723 7BRUNO RICARDO RAMO            1999764             01112021REA000000000100000000000000036890                    000000000000000000000000000                00000000045491411825            0
3410001300387A00100923700315 000000051955 3DANIELE PINHEIRO DOS SANTOS   1948493             01112021REA000000000100000000000000036140                    000000000000000000000000000                00000000029745176842            0
3410001300388A00100923703114 000000600551 9MARIA FATIMA FERREIRA LEITE   1881893             01112021REA000000000100000000000000036002                    000000000000000000000000000                00000000022358137391            0
3410001300389A00100923703465 000000100970 2FUAD JORGE POZZI CURY         1989816             01112021REA000000000100000000000000034720                    000000000000000000000000000                00000000022144873879            0
3410001300390A00100923700551 000000212181 6ALINE DE CHIARA DE SOUZA      1879033             01112021REA000000000100000000000000034202                    000000000000000000000000000                00000000009845908705            0
3410001300391A00100923702992 000000037628 0EDUARDO DE PAIVA MOURA        1883796             01112021REA000000000100000000000000034200                    000000000000000000000000000                00000000008899435405            0
3410001300392A00100923700285 000000163579 4CATIA LOURENCO MAGNUS         1886287             01112021REA000000000100000000000000032402                    000000000000000000000000000                00000000002626938017            0
3410001300393A00100923700510 000000032901 0LUCIANO DONIZETI SANT ANA     1876713             01112021REA000000000100000000000000031500                    000000000000000000000000000                00000000007312934609            0
3410001300394A00100923703187 000000014196 8MARCOS YUKIO SHIDA            1876142             01112021REA000000000100000000000000031499                    000000000000000000000000000                00000000012706481870            0
3410001300395A00100923700701 000000002492 9ISABELA OLIVEIRA              1879860             01112021REA000000000100000000000000030602                    000000000000000000000000000                00000000006233415659            0
3410001300396A00100923700319 000000000194 5AMANDA THAIS FRONZA           1996501             01112021REA000000000100000000000000030380                    000000000000000000000000000                00000000036057869877            0
3410001300397A00100923702770 000000040324 5GUILHERME HENRIQUE SANTOS DE S1880700             01112021REA000000000100000000000000030000                    000000000000000000000000000                00000000052748039890            0
3410001300398A00100923703568 000000000075 2MARCELLO                      1880277             01112021REA000000000100000000000000030000                    000000000000000000000000000                00000000007302211809            0
3410001300399A00100923702770 000000040324 5GUILHERME HENRIQUE SANTOS DE S1877925             01112021REA000000000100000000000000030000                    000000000000000000000000000                00000000052748039890            0
3410001300400A00100923703739 000000005795 9PERRC ANTONIO DA SILVA E SILVA1866777             01112021REA000000000100000000000000029610                    000000000000000000000000000                00000000064337979204            0
3410001300401A00100923700364 000000251177 0FABIO AUGUSTO GIL             1992489             01112021REA000000000100000000000000028210                    000000000000000000000000000                00000000025096820831            0
3410001300402A00100923700470 000000007737 2KAUAN MELLO DOS SANTOS        1990763             01112021REA000000000100000000000000028210                    000000000000000000000000000                00000000050535539800            0
3410001300403A00100923701332 000000005476 3HENRI ARAUJO                  1884200             01112021REA000000000100000000000000027500                    000000000000000000000000000                00000000012766497706            0
3410001300404A00100923707210 000000068710 3IGOR RAMOS PIMENTA            1872828             01112021REA000000000100000000000000027090                    000000000000000000000000000                00000000003311887085            0
3410001300405A00100923702628 000000025073 2AGNES MENEZES DE OLIVEIRA     1843588             01112021REA000000000100000000000000027001                    000000000000000000000000000                00000000002858747563            0
3410001300406A00100923700402 000000401168 6VALTER SCUCATO JUNIOR         1876903             01112021REA000000000100000000000000027001                    000000000000000000000000000                00000000015863679867            0
3410001300407A00100923700112 000000007340 7JESSICA ALMEIDA MENDES        1879912             01112021REA000000000100000000000000027001                    000000000000000000000000000                00000000039214130876            0
3410001300408A00100923703726 000001003873 1ANA RUTHE OLIVEIRA SILVA      1884554             01112021REA000000000300000000000000027001                    000000000000000000000000000                00000000062777637253            0
3410001300409A00100923700026 000000441328 8RAPHAEL DE PAULA VALENTIM     1941242             01112021REA000000000100000000000000027000                    000000000000000000000000000                00000000010545888727            0
3410001300410A00100923700459 000000424040 5GREYCI CRISTINA REQUIA        1997212             01112021REA000000000100000000000000026040                    000000000000000000000000000                00000000005906757961            0
3410001300411A00100923701088 000000018336 9ADILINA FABIA CORDEIRO BORGES 1883090             01112021REA000000000100000000000000025200                    000000000000000000000000000                00000000089105702534            0
3410001300412A00100923703623 000000007930 8EDVALDO PIRES CERQUEIRA       1883373             01112021REA000000000100000000000000025000                    000000000000000000000000000                00000000008678723572            0
3410001300413A00100923700741 000000041089 6FRANCISCO ERENILDO DE SOUZA SI1864866             01112021REA000000000100000000000000024528                    000000000000000000000000000                00000000001528251342            0
3410001300414A00100923701996 000000042508 7GILMARIO FIUZA DURVAL TEIXEIRA1865841             01112021REA000000000100000000000000024024                    000000000000000000000000000                00000000004626038573            0
3410001300415A00100923702608 000000044730 7ANDERSON FILIPE DE OLIVEIRA   1999057             01112021REA000000000100000000000000023870                    000000000000000000000000000                00000000004333541352            0
3410001300416A00100923702299 000000001018 9LUCIA HELENA DE CARVALHO COSTA1864714             01112021REA000000000100000000000000021807                    000000000000000000000000000                00000000046724052653            0
3410001300417A00100923700448 000000011005 1JEAN DE PAULA SANTOS          1852012             01112021REA000000000100000000000000021601                    000000000000000000000000000                00000000010026883708            0
3410001300418A00100923703172 000000001466 4ELIEL DA SILVA MOURA          1882190             01112021REA000000000100000000000000021601                    000000000000000000000000000                00000000010043022740            0
3410001300419A00100923701315 000000223324 0MATHEUS GASPAR GUIMARAES      1877065             01112021REA000000000100000000000000021601                    000000000000000000000000000                00000000016020629783            0
3410001300420A00100923701900 000001000111 0LIVAN CARVALHO ORTIZ          1860065             01112021REA000000000300000000000000020400                    000000000000000000000000000                00000000000675015081            0
3410001300421A00100923703267 000000126937 2TIAGO RIBEIRO NASCIMENTO      2000079             01112021REA000000000100000000000000020250                    000000000000000000000000000                00000000034781317820            0
3410001300422A00100923703726 000000106632 3SERGIO HENRIQUE RAMOS COSTA   1933815             01112021REA000000000100000000000000020219                    000000000000000000000000000                00000000034730516249            0
3410001300423A00100923705723 000000031168 5CHRISTIAN CARSTENS SARABIA D A1864274             01112021REA000000000100000000000000019801                    000000000000000000000000000                00000000072361816920            0
3410001300424A00100933600001 000005699945 3ANDERSON OLIVEIRA             1861629             01112021REA000000000100000000000000019320                    000000000000000000000000000                00000000013362768784            0
3410001300425A00100923701143 000000602746 6JOSEANE SOUSA PALHANO         1959924             01112021REA000000000300000000000000017550                    000000000000000000000000000                00000000003431934340            0
3410001300426A00100923700586 000000026726 0VALDOMIRO EWERSON PEREIRA NUNE1960258             01112021REA000000000100000000000000016402                    000000000000000000000000000                00000000005589047420            0
3410001300427A00100922503441 000000195276 5LIA MARA IOST LEITAO          1883948             01112021REA000000000100000000000000065000                    000000000000000000000000000                00000000031778360866            0
3410001300428A00100920800020 000000383671 5ISMAEL DE JESUS ROCHA         1883581             01112021REA000000000100000000000000499919                    000000000000000000000000000                00000000084083000597            0
3410001300429A00100920800020 000000295680 2BISMARQUE ANDRADE DOS SANTOS  1879414             01112021REA000000000100000000000000315000                    000000000000000000000000000                00000000005610208505            0
3410001300430A00100920800020 000000320999 6TAICIR EDUARDO SAMARA         1882458             01112021REA000000000100000000000000270900                    000000000000000000000000000                00000000096499761087            0
3410001300431A00100920800020 000000574632 6JOAO VITOR VIEIRA DE SOUZA    1861678             01112021REA000000000100000000000000142475                    000000000000000000000000000                00000000012135998737            0
